{
  "_format": "hh-sol-artifact-1",
  "contractName": "izToken",
  "sourceName": "contracts/izToken.sol",
  "abi": [
    {
      "inputs": [
        {
          "internalType": "address",
          "name": "target",
          "type": "address"
        }
      ],
      "name": "AddressEmptyCode",
      "type": "error"
    },
    {
      "inputs": [
        {
          "internalType": "uint256",
          "name": "addressesLength",
          "type": "uint256"
        },
        {
          "internalType": "uint256",
          "name": "valuesLength",
          "type": "uint256"
        }
      ],
      "name": "ArraysLengthMismatch",
      "type": "error"
    },
    {
      "inputs": [
        {
          "internalType": "address",
          "name": "implementation",
          "type": "address"
        }
      ],
      "name": "ERC1967InvalidImplementation",
      "type": "error"
    },
    {
      "inputs": [],
      "name": "ERC1967NonPayable",
      "type": "error"
    },
    {
      "inputs": [
        {
          "internalType": "address",
          "name": "spender",
          "type": "address"
        },
        {
          "internalType": "uint256",
          "name": "allowance",
          "type": "uint256"
        },
        {
          "internalType": "uint256",
          "name": "needed",
          "type": "uint256"
        }
      ],
      "name": "ERC20InsufficientAllowance",
      "type": "error"
    },
    {
      "inputs": [
        {
          "internalType": "address",
          "name": "sender",
          "type": "address"
        },
        {
          "internalType": "uint256",
          "name": "balance",
          "type": "uint256"
        },
        {
          "internalType": "uint256",
          "name": "needed",
          "type": "uint256"
        }
      ],
      "name": "ERC20InsufficientBalance",
      "type": "error"
    },
    {
      "inputs": [
        {
          "internalType": "address",
          "name": "approver",
          "type": "address"
        }
      ],
      "name": "ERC20InvalidApprover",
      "type": "error"
    },
    {
      "inputs": [
        {
          "internalType": "address",
          "name": "receiver",
          "type": "address"
        }
      ],
      "name": "ERC20InvalidReceiver",
      "type": "error"
    },
    {
      "inputs": [
        {
          "internalType": "address",
          "name": "sender",
          "type": "address"
        }
      ],
      "name": "ERC20InvalidSender",
      "type": "error"
    },
    {
      "inputs": [
        {
          "internalType": "address",
          "name": "spender",
          "type": "address"
        }
      ],
      "name": "ERC20InvalidSpender",
      "type": "error"
    },
    {
      "inputs": [],
      "name": "EnforcedPause",
      "type": "error"
    },
    {
      "inputs": [],
      "name": "ExpectedPause",
      "type": "error"
    },
    {
      "inputs": [],
      "name": "FailedCall",
      "type": "error"
    },
    {
      "inputs": [],
      "name": "InvalidInitialization",
      "type": "error"
    },
    {
      "inputs": [],
      "name": "NotInitializing",
      "type": "error"
    },
    {
      "inputs": [
        {
          "internalType": "address",
          "name": "owner",
          "type": "address"
        }
      ],
      "name": "OwnableInvalidOwner",
      "type": "error"
    },
    {
      "inputs": [
        {
          "internalType": "address",
          "name": "account",
          "type": "address"
        }
      ],
      "name": "OwnableUnauthorizedAccount",
      "type": "error"
    },
    {
      "inputs": [],
      "name": "UUPSUnauthorizedCallContext",
      "type": "error"
    },
    {
      "inputs": [
        {
          "internalType": "bytes32",
          "name": "slot",
          "type": "bytes32"
        }
      ],
      "name": "UUPSUnsupportedProxiableUUID",
      "type": "error"
    },
    {
      "inputs": [
        {
          "internalType": "address",
          "name": "_address",
          "type": "address"
        }
      ],
      "name": "UnauthorizedAddress",
      "type": "error"
    },
    {
      "anonymous": false,
      "inputs": [
        {
          "indexed": true,
          "internalType": "address",
          "name": "owner",
          "type": "address"
        },
        {
          "indexed": true,
          "internalType": "address",
          "name": "spender",
          "type": "address"
        },
        {
          "indexed": false,
          "internalType": "uint256",
          "name": "value",
          "type": "uint256"
        }
      ],
      "name": "Approval",
      "type": "event"
    },
    {
      "anonymous": false,
      "inputs": [
        {
          "indexed": false,
          "internalType": "address",
          "name": "oldCompensationContract",
          "type": "address"
        },
        {
          "indexed": false,
          "internalType": "address",
          "name": "newCompensationContract",
          "type": "address"
        }
      ],
      "name": "CompensationContractChanged",
      "type": "event"
    },
    {
      "anonymous": false,
      "inputs": [
        {
          "indexed": false,
          "internalType": "address",
          "name": "_controller",
          "type": "address"
        },
        {
          "indexed": true,
          "internalType": "address",
          "name": "_tokenHolder",
          "type": "address"
        },
        {
          "indexed": false,
          "internalType": "uint256",
          "name": "_value",
          "type": "uint256"
        },
        {
          "indexed": false,
          "internalType": "bytes",
          "name": "_data",
          "type": "bytes"
        },
        {
          "indexed": false,
          "internalType": "bytes",
          "name": "_operatorData",
          "type": "bytes"
        }
      ],
      "name": "ControllerRedemption",
      "type": "event"
    },
    {
      "anonymous": false,
      "inputs": [
        {
          "indexed": false,
          "internalType": "address",
          "name": "_controller",
          "type": "address"
        },
        {
          "indexed": true,
          "internalType": "address",
          "name": "_from",
          "type": "address"
        },
        {
          "indexed": true,
          "internalType": "address",
          "name": "_to",
          "type": "address"
        },
        {
          "indexed": false,
          "internalType": "uint256",
          "name": "_value",
          "type": "uint256"
        },
        {
          "indexed": false,
          "internalType": "bytes",
          "name": "_data",
          "type": "bytes"
        },
        {
          "indexed": false,
          "internalType": "bytes",
          "name": "_operatorData",
          "type": "bytes"
        }
      ],
      "name": "ControllerTransfer",
      "type": "event"
    },
    {
      "anonymous": false,
      "inputs": [
        {
          "indexed": false,
          "internalType": "uint64",
          "name": "version",
          "type": "uint64"
        }
      ],
      "name": "Initialized",
      "type": "event"
    },
    {
      "anonymous": false,
      "inputs": [
        {
          "indexed": true,
          "internalType": "address",
          "name": "_operator",
          "type": "address"
        },
        {
          "indexed": true,
          "internalType": "address",
          "name": "_to",
          "type": "address"
        },
        {
          "indexed": false,
          "internalType": "uint256",
          "name": "_value",
          "type": "uint256"
        },
        {
          "indexed": false,
          "internalType": "bytes",
          "name": "_data",
          "type": "bytes"
        }
      ],
      "name": "Issued",
      "type": "event"
    },
    {
      "anonymous": false,
      "inputs": [
        {
          "indexed": false,
          "internalType": "uint256",
          "name": "oldMinimumTransfer",
          "type": "uint256"
        },
        {
          "indexed": false,
          "internalType": "uint256",
          "name": "newMinimumTransfer",
          "type": "uint256"
        }
      ],
      "name": "MinimumTransferChanged",
      "type": "event"
    },
    {
      "anonymous": false,
      "inputs": [
        {
          "indexed": false,
          "internalType": "uint256",
          "name": "oldMinimumUserBalance",
          "type": "uint256"
        },
        {
          "indexed": false,
          "internalType": "uint256",
          "name": "newMinimumUserBalance",
          "type": "uint256"
        }
      ],
      "name": "MinimumUserBalanceChanged",
      "type": "event"
    },
    {
      "anonymous": false,
      "inputs": [
        {
          "indexed": true,
          "internalType": "address",
          "name": "previousOwner",
          "type": "address"
        },
        {
          "indexed": true,
          "internalType": "address",
          "name": "newOwner",
          "type": "address"
        }
      ],
      "name": "OwnershipTransferred",
      "type": "event"
    },
    {
      "anonymous": false,
      "inputs": [
        {
          "indexed": true,
          "internalType": "address",
          "name": "user",
          "type": "address"
        }
      ],
      "name": "PartyRemoved",
      "type": "event"
    },
    {
      "anonymous": false,
      "inputs": [
        {
          "indexed": true,
          "internalType": "address",
          "name": "user",
          "type": "address"
        },
        {
          "indexed": false,
          "internalType": "uint8",
          "name": "permission",
          "type": "uint8"
        },
        {
          "indexed": false,
          "internalType": "uint256",
          "name": "expiration",
          "type": "uint256"
        },
        {
          "indexed": false,
          "internalType": "bytes",
          "name": "attachedData",
          "type": "bytes"
        }
      ],
      "name": "PartyUpdated",
      "type": "event"
    },
    {
      "anonymous": false,
      "inputs": [
        {
          "indexed": false,
          "internalType": "address",
          "name": "account",
          "type": "address"
        }
      ],
      "name": "Paused",
      "type": "event"
    },
    {
      "anonymous": false,
      "inputs": [
        {
          "indexed": true,
          "internalType": "address",
          "name": "_operator",
          "type": "address"
        },
        {
          "indexed": true,
          "internalType": "address",
          "name": "_from",
          "type": "address"
        },
        {
          "indexed": false,
          "internalType": "uint256",
          "name": "_value",
          "type": "uint256"
        },
        {
          "indexed": false,
          "internalType": "bytes",
          "name": "_data",
          "type": "bytes"
        }
      ],
      "name": "Redeemed",
      "type": "event"
    },
    {
      "anonymous": false,
      "inputs": [
        {
          "indexed": true,
          "internalType": "address",
          "name": "from",
          "type": "address"
        },
        {
          "indexed": true,
          "internalType": "address",
          "name": "to",
          "type": "address"
        },
        {
          "indexed": false,
          "internalType": "uint256",
          "name": "value",
          "type": "uint256"
        }
      ],
      "name": "Transfer",
      "type": "event"
    },
    {
      "anonymous": false,
      "inputs": [
        {
          "indexed": false,
          "internalType": "address",
          "name": "account",
          "type": "address"
        }
      ],
      "name": "Unpaused",
      "type": "event"
    },
    {
      "anonymous": false,
      "inputs": [
        {
          "indexed": true,
          "internalType": "address",
          "name": "implementation",
          "type": "address"
        }
      ],
      "name": "Upgraded",
      "type": "event"
    },
    {
      "anonymous": false,
      "inputs": [
        {
          "indexed": false,
          "internalType": "address",
          "name": "oldIssuer",
          "type": "address"
        },
        {
          "indexed": false,
          "internalType": "address",
          "name": "newIssuer",
          "type": "address"
        }
      ],
      "name": "changeIssuerEvent",
      "type": "event"
    },
    {
      "anonymous": false,
      "inputs": [],
      "name": "executionComplete",
      "type": "event"
    },
    {
      "anonymous": false,
      "inputs": [
        {
          "indexed": false,
          "internalType": "uint256",
          "name": "currentIndex",
          "type": "uint256"
        }
      ],
      "name": "partialExecution",
      "type": "event"
    },
    {
      "anonymous": false,
      "inputs": [
        {
          "indexed": false,
          "internalType": "address",
          "name": "from",
          "type": "address"
        },
        {
          "indexed": false,
          "internalType": "address",
          "name": "to",
          "type": "address"
        },
        {
          "indexed": false,
          "internalType": "uint256",
          "name": "value",
          "type": "uint256"
        },
        {
          "indexed": false,
          "internalType": "bytes",
          "name": "data",
          "type": "bytes"
        }
      ],
      "name": "transferWithDataEvent",
      "type": "event"
    },
    {
      "inputs": [],
      "name": "UPGRADE_INTERFACE_VERSION",
      "outputs": [
        {
          "internalType": "string",
          "name": "",
          "type": "string"
        }
      ],
      "stateMutability": "view",
      "type": "function"
    },
    {
      "inputs": [
        {
          "internalType": "address",
          "name": "_user",
          "type": "address"
        },
        {
          "internalType": "uint8",
          "name": "_permission",
          "type": "uint8"
        },
        {
          "internalType": "uint256",
          "name": "_expiration",
          "type": "uint256"
        },
        {
          "internalType": "bytes",
          "name": "_attachedData",
          "type": "bytes"
        }
      ],
      "name": "addParty",
      "outputs": [],
      "stateMutability": "nonpayable",
      "type": "function"
    },
    {
      "inputs": [
        {
          "internalType": "address",
          "name": "owner",
          "type": "address"
        },
        {
          "internalType": "address",
          "name": "spender",
          "type": "address"
        }
      ],
      "name": "allowance",
      "outputs": [
        {
          "internalType": "uint256",
          "name": "",
          "type": "uint256"
        }
      ],
      "stateMutability": "view",
      "type": "function"
    },
    {
      "inputs": [
        {
          "internalType": "address",
          "name": "spender",
          "type": "address"
        },
        {
          "internalType": "uint256",
          "name": "value",
          "type": "uint256"
        }
      ],
      "name": "approve",
      "outputs": [
        {
          "internalType": "bool",
          "name": "",
          "type": "bool"
        }
      ],
      "stateMutability": "nonpayable",
      "type": "function"
    },
    {
      "inputs": [
        {
          "internalType": "address",
          "name": "account",
          "type": "address"
        }
      ],
      "name": "balanceOf",
      "outputs": [
        {
          "internalType": "uint256",
          "name": "",
          "type": "uint256"
        }
      ],
      "stateMutability": "view",
      "type": "function"
    },
    {
      "inputs": [
        {
          "internalType": "uint256",
          "name": "value",
          "type": "uint256"
        }
      ],
      "name": "burn",
      "outputs": [],
      "stateMutability": "nonpayable",
      "type": "function"
    },
    {
      "inputs": [
        {
          "internalType": "address",
          "name": "account",
          "type": "address"
        },
        {
          "internalType": "uint256",
          "name": "value",
          "type": "uint256"
        }
      ],
      "name": "burnFrom",
      "outputs": [],
      "stateMutability": "nonpayable",
      "type": "function"
    },
    {
      "inputs": [
        {
          "internalType": "address",
          "name": "_to",
          "type": "address"
        },
        {
          "internalType": "uint256",
          "name": "_value",
          "type": "uint256"
        },
        {
          "internalType": "bytes",
          "name": "",
          "type": "bytes"
        }
      ],
      "name": "canTransfer",
      "outputs": [
        {
          "internalType": "bool",
          "name": "result",
          "type": "bool"
        },
        {
          "internalType": "bytes1",
          "name": "resultCode",
          "type": "bytes1"
        },
        {
          "internalType": "bytes32",
          "name": "",
          "type": "bytes32"
        }
      ],
      "stateMutability": "view",
      "type": "function"
    },
    {
      "inputs": [
        {
          "internalType": "address",
          "name": "_from",
          "type": "address"
        },
        {
          "internalType": "address",
          "name": "_to",
          "type": "address"
        },
        {
          "internalType": "uint256",
          "name": "_value",
          "type": "uint256"
        },
        {
          "internalType": "bytes",
          "name": "",
          "type": "bytes"
        }
      ],
      "name": "canTransferFrom",
      "outputs": [
        {
          "internalType": "bool",
          "name": "result",
          "type": "bool"
        },
        {
          "internalType": "bytes1",
          "name": "resultCode",
          "type": "bytes1"
        },
        {
          "internalType": "bytes32",
          "name": "",
          "type": "bytes32"
        }
      ],
      "stateMutability": "view",
      "type": "function"
    },
    {
      "inputs": [
        {
          "internalType": "address",
          "name": "_newIssuer",
          "type": "address"
        }
      ],
      "name": "changeIssuer",
      "outputs": [],
      "stateMutability": "nonpayable",
      "type": "function"
    },
    {
      "inputs": [],
      "name": "compensationContract",
      "outputs": [
        {
          "internalType": "address",
          "name": "",
          "type": "address"
        }
      ],
      "stateMutability": "view",
      "type": "function"
    },
    {
      "inputs": [
        {
          "internalType": "address",
          "name": "_recipient",
          "type": "address"
        }
      ],
      "name": "compense",
      "outputs": [],
      "stateMutability": "nonpayable",
      "type": "function"
    },
    {
      "inputs": [
        {
          "internalType": "address",
          "name": "_tokenHolder",
          "type": "address"
        },
        {
          "internalType": "uint256",
          "name": "_value",
          "type": "uint256"
        },
        {
          "internalType": "bytes",
          "name": "_data",
          "type": "bytes"
        },
        {
          "internalType": "bytes",
          "name": "_operatorData",
          "type": "bytes"
        }
      ],
      "name": "controllerRedeem",
      "outputs": [],
      "stateMutability": "nonpayable",
      "type": "function"
    },
    {
      "inputs": [
        {
          "internalType": "address",
          "name": "_from",
          "type": "address"
        },
        {
          "internalType": "address",
          "name": "_to",
          "type": "address"
        },
        {
          "internalType": "uint256",
          "name": "_value",
          "type": "uint256"
        },
        {
          "internalType": "bytes",
          "name": "_data",
          "type": "bytes"
        },
        {
          "internalType": "bytes",
          "name": "_operatorData",
          "type": "bytes"
        }
      ],
      "name": "controllerTransfer",
      "outputs": [],
      "stateMutability": "nonpayable",
      "type": "function"
    },
    {
      "inputs": [],
      "name": "decimals",
      "outputs": [
        {
          "internalType": "uint8",
          "name": "",
          "type": "uint8"
        }
      ],
      "stateMutability": "view",
      "type": "function"
    },
    {
      "inputs": [
        {
          "internalType": "address",
          "name": "_to",
          "type": "address"
        },
        {
          "internalType": "uint256",
          "name": "_value",
          "type": "uint256"
        },
        {
          "internalType": "bytes",
          "name": "_data",
          "type": "bytes"
        }
      ],
      "name": "distribute",
      "outputs": [],
      "stateMutability": "nonpayable",
      "type": "function"
    },
    {
      "inputs": [
        {
          "internalType": "address[]",
          "name": "_to",
          "type": "address[]"
        },
        {
          "internalType": "uint256[]",
          "name": "_value",
          "type": "uint256[]"
        }
      ],
      "name": "distributeBatch",
      "outputs": [],
      "stateMutability": "nonpayable",
      "type": "function"
    },
    {
      "inputs": [
        {
          "internalType": "uint256",
          "name": "_value",
          "type": "uint256"
        },
        {
          "internalType": "bytes",
          "name": "_data",
          "type": "bytes"
        }
      ],
      "name": "generate",
      "outputs": [],
      "stateMutability": "nonpayable",
      "type": "function"
    },
    {
      "inputs": [
        {
          "internalType": "address",
          "name": "_user",
          "type": "address"
        }
      ],
      "name": "getAttachedData",
      "outputs": [
        {
          "internalType": "bytes",
          "name": "",
          "type": "bytes"
        }
      ],
      "stateMutability": "view",
      "type": "function"
    },
    {
      "inputs": [
        {
          "internalType": "address",
          "name": "_owner",
          "type": "address"
        },
        {
          "internalType": "address",
          "name": "_issuer",
          "type": "address"
        },
        {
          "internalType": "string",
          "name": "_name",
          "type": "string"
        },
        {
          "internalType": "string",
          "name": "_symbol",
          "type": "string"
        },
        {
          "internalType": "uint256",
          "name": "_minimumTransfer",
          "type": "uint256"
        },
        {
          "internalType": "uint256",
          "name": "_minimumUserBalance",
          "type": "uint256"
        },
        {
          "internalType": "address",
          "name": "_compensationContract",
          "type": "address"
        }
      ],
      "name": "initialize",
      "outputs": [],
      "stateMutability": "nonpayable",
      "type": "function"
    },
    {
      "inputs": [],
      "name": "isControllable",
      "outputs": [
        {
          "internalType": "bool",
          "name": "",
          "type": "bool"
        }
      ],
      "stateMutability": "pure",
      "type": "function"
    },
    {
      "inputs": [],
      "name": "isIssuable",
      "outputs": [
        {
          "internalType": "bool",
          "name": "",
          "type": "bool"
        }
      ],
      "stateMutability": "pure",
      "type": "function"
    },
    {
      "inputs": [
        {
          "internalType": "address",
          "name": "",
          "type": "address"
        },
        {
          "internalType": "uint256",
          "name": "",
          "type": "uint256"
        },
        {
          "internalType": "bytes",
          "name": "",
          "type": "bytes"
        }
      ],
      "name": "issue",
      "outputs": [],
      "stateMutability": "pure",
      "type": "function"
    },
    {
      "inputs": [],
      "name": "issuer",
      "outputs": [
        {
          "internalType": "address",
          "name": "",
          "type": "address"
        }
      ],
      "stateMutability": "view",
      "type": "function"
    },
    {
      "inputs": [],
      "name": "minimumTransfer",
      "outputs": [
        {
          "internalType": "uint256",
          "name": "",
          "type": "uint256"
        }
      ],
      "stateMutability": "view",
      "type": "function"
    },
    {
      "inputs": [],
      "name": "minimumUserBalance",
      "outputs": [
        {
          "internalType": "uint256",
          "name": "",
          "type": "uint256"
        }
      ],
      "stateMutability": "view",
      "type": "function"
    },
    {
      "inputs": [],
      "name": "name",
      "outputs": [
        {
          "internalType": "string",
          "name": "",
          "type": "string"
        }
      ],
      "stateMutability": "view",
      "type": "function"
    },
    {
      "inputs": [],
      "name": "owner",
      "outputs": [
        {
          "internalType": "address",
          "name": "",
          "type": "address"
        }
      ],
      "stateMutability": "view",
      "type": "function"
    },
    {
      "inputs": [
        {
          "internalType": "address",
          "name": "",
          "type": "address"
        }
      ],
      "name": "parties",
      "outputs": [
        {
          "internalType": "uint8",
          "name": "permission",
          "type": "uint8"
        },
        {
          "internalType": "uint256",
          "name": "expiration",
          "type": "uint256"
        },
        {
          "internalType": "bytes",
          "name": "attachedData",
          "type": "bytes"
        }
      ],
      "stateMutability": "view",
      "type": "function"
    },
    {
      "inputs": [
        {
          "internalType": "address",
          "name": "_user",
          "type": "address"
        },
        {
          "internalType": "uint256",
          "name": "timestamp",
          "type": "uint256"
        }
      ],
      "name": "partyPermission",
      "outputs": [
        {
          "internalType": "uint8",
          "name": "",
          "type": "uint8"
        }
      ],
      "stateMutability": "view",
      "type": "function"
    },
    {
      "inputs": [],
      "name": "pause",
      "outputs": [],
      "stateMutability": "nonpayable",
      "type": "function"
    },
    {
      "inputs": [],
      "name": "paused",
      "outputs": [
        {
          "internalType": "bool",
          "name": "",
          "type": "bool"
        }
      ],
      "stateMutability": "view",
      "type": "function"
    },
    {
      "inputs": [],
      "name": "proxiableUUID",
      "outputs": [
        {
          "internalType": "bytes32",
          "name": "",
          "type": "bytes32"
        }
      ],
      "stateMutability": "view",
      "type": "function"
    },
    {
      "inputs": [
        {
          "internalType": "uint256",
          "name": "_value",
          "type": "uint256"
        },
        {
          "internalType": "bytes",
          "name": "_data",
          "type": "bytes"
        }
      ],
      "name": "redeem",
      "outputs": [],
      "stateMutability": "nonpayable",
      "type": "function"
    },
    {
      "inputs": [
        {
          "internalType": "address",
          "name": "_from",
          "type": "address"
        },
        {
          "internalType": "uint256",
          "name": "_value",
          "type": "uint256"
        },
        {
          "internalType": "bytes",
          "name": "_data",
          "type": "bytes"
        }
      ],
      "name": "redeemFrom",
      "outputs": [],
      "stateMutability": "nonpayable",
      "type": "function"
    },
    {
      "inputs": [
        {
          "internalType": "address",
          "name": "_user",
          "type": "address"
        }
      ],
      "name": "removeParty",
      "outputs": [],
      "stateMutability": "nonpayable",
      "type": "function"
    },
    {
      "inputs": [],
      "name": "renounceOwnership",
      "outputs": [],
      "stateMutability": "nonpayable",
      "type": "function"
    },
    {
      "inputs": [
        {
          "internalType": "address",
          "name": "_compensationContract",
          "type": "address"
        }
      ],
      "name": "setCompensationContract",
      "outputs": [],
      "stateMutability": "nonpayable",
      "type": "function"
    },
    {
      "inputs": [
        {
          "internalType": "uint256",
          "name": "_minimumTransfer",
          "type": "uint256"
        }
      ],
      "name": "setMinimumTransfer",
      "outputs": [],
      "stateMutability": "nonpayable",
      "type": "function"
    },
    {
      "inputs": [
        {
          "internalType": "uint256",
          "name": "_minimumUserBalance",
          "type": "uint256"
        }
      ],
      "name": "setMinimumUserBalance",
      "outputs": [],
      "stateMutability": "nonpayable",
      "type": "function"
    },
    {
      "inputs": [],
      "name": "symbol",
      "outputs": [
        {
          "internalType": "string",
          "name": "",
          "type": "string"
        }
      ],
      "stateMutability": "view",
      "type": "function"
    },
    {
      "inputs": [],
      "name": "totalSupply",
      "outputs": [
        {
          "internalType": "uint256",
          "name": "",
          "type": "uint256"
        }
      ],
      "stateMutability": "view",
      "type": "function"
    },
    {
      "inputs": [
        {
          "internalType": "address",
          "name": "_to",
          "type": "address"
        },
        {
          "internalType": "uint256",
          "name": "_value",
          "type": "uint256"
        }
      ],
      "name": "transfer",
      "outputs": [
        {
          "internalType": "bool",
          "name": "",
          "type": "bool"
        }
      ],
      "stateMutability": "nonpayable",
      "type": "function"
    },
    {
      "inputs": [
        {
          "internalType": "address",
          "name": "_from",
          "type": "address"
        },
        {
          "internalType": "address",
          "name": "_to",
          "type": "address"
        },
        {
          "internalType": "uint256",
          "name": "_value",
          "type": "uint256"
        }
      ],
      "name": "transferFrom",
      "outputs": [
        {
          "internalType": "bool",
          "name": "",
          "type": "bool"
        }
      ],
      "stateMutability": "nonpayable",
      "type": "function"
    },
    {
      "inputs": [
        {
          "internalType": "address",
          "name": "_from",
          "type": "address"
        },
        {
          "internalType": "address",
          "name": "_to",
          "type": "address"
        },
        {
          "internalType": "uint256",
          "name": "_value",
          "type": "uint256"
        },
        {
          "internalType": "bytes",
          "name": "_data",
          "type": "bytes"
        }
      ],
      "name": "transferFromWithData",
      "outputs": [],
      "stateMutability": "nonpayable",
      "type": "function"
    },
    {
      "inputs": [
        {
          "internalType": "address",
          "name": "newOwner",
          "type": "address"
        }
      ],
      "name": "transferOwnership",
      "outputs": [],
      "stateMutability": "nonpayable",
      "type": "function"
    },
    {
      "inputs": [
        {
          "internalType": "address",
          "name": "_to",
          "type": "address"
        },
        {
          "internalType": "uint256",
          "name": "_value",
          "type": "uint256"
        },
        {
          "internalType": "bytes",
          "name": "_data",
          "type": "bytes"
        }
      ],
      "name": "transferWithData",
      "outputs": [],
      "stateMutability": "nonpayable",
      "type": "function"
    },
    {
      "inputs": [],
      "name": "unpause",
      "outputs": [],
      "stateMutability": "nonpayable",
      "type": "function"
    },
    {
      "inputs": [
        {
          "internalType": "address",
          "name": "newImplementation",
          "type": "address"
        },
        {
          "internalType": "bytes",
          "name": "data",
          "type": "bytes"
        }
      ],
      "name": "upgradeToAndCall",
      "outputs": [],
      "stateMutability": "payable",
      "type": "function"
    }
  ],
  "bytecode": "0x60a06040523073ffffffffffffffffffffffffffffffffffffffff1660809073ffffffffffffffffffffffffffffffffffffffff16815250348015604257600080fd5b50608051615c9761006c60003960008181613259015281816132ae01526134690152615c976000f3fe6080604052600436106102ae5760003560e01c806376dbb07811610175578063ae1b1119116100dc578063dd62ed3e11610095578063e77c646d1161006f578063e77c646d14610a8f578063ee532f3114610ab8578063f282527a14610ae1578063f2fde38b14610b0a576102ae565b8063dd62ed3e146109ea578063e385b5ab14610a27578063e6399fb114610a52576102ae565b8063ae1b1119146108e0578063bb3acde91461091d578063bf64a58614610946578063c1a422431461096f578063c425bfab14610998578063cf4c58e2146109c1576102ae565b80638da5cb5b1161012e5780638da5cb5b146107d057806390c40e87146107fb57806395d89b41146108245780639675193c1461084f578063a9059cbb14610878578063ad3cb1cc146108b5576102ae565b806376dbb078146106ea57806379cc6790146107135780637e8931591461073c5780638456cb5914610765578063858ede2a1461077c5780638d5835f9146107a5576102ae565b80633a8c51c7116102195780634f235207116101d25780634f235207146105d657806352d1902d1461061557806359c5d70a146106405780635c975abb1461066b57806370a0823114610696578063715018a6146106d3576102ae565b80633a8c51c7146104fd5780633f4ba83a1461052657806342966c681461053d5780634c783bf5146105665780634ef7774c146105915780634f1ef286146105ba576102ae565b80631d1438481161026b5780631d143848146103ed57806323b872dd146104185780632535f762146104555780632bc6acc31461047e5780632f1cae85146104a7578063313ce567146104d2576102ae565b806301fecf54146102b357806306fdde03146102dc578063095ea7b314610307578063122eb5751461034457806318160ddd146103835780631badb25c146103ae575b600080fd5b3480156102bf57600080fd5b506102da60048036038101906102d591906143d1565b610b33565b005b3480156102e857600080fd5b506102f1610c1e565b6040516102fe919061448e565b60405180910390f35b34801561031357600080fd5b5061032e6004803603810190610329919061450e565b610cbf565b60405161033b9190614569565b60405180910390f35b34801561035057600080fd5b5061036b600480360381019061036691906146b9565b610ce2565b60405161037a93929190614790565b60405180910390f35b34801561038f57600080fd5b50610398610d02565b6040516103a591906147d6565b60405180910390f35b3480156103ba57600080fd5b506103d560048036038101906103d091906147f1565b610d1a565b6040516103e493929190614790565b60405180910390f35b3480156103f957600080fd5b50610402610d40565b60405161040f919061486f565b60405180910390f35b34801561042457600080fd5b5061043f600480360381019061043a919061488a565b610d64565b60405161044c9190614569565b60405180910390f35b34801561046157600080fd5b5061047c600480360381019061047791906147f1565b610d84565b005b34801561048a57600080fd5b506104a560048036038101906104a091906148dd565b610de7565b005b3480156104b357600080fd5b506104bc610ef0565b6040516104c99190614569565b60405180910390f35b3480156104de57600080fd5b506104e7610ef9565b6040516104f49190614998565b60405180910390f35b34801561050957600080fd5b50610524600480360381019061051f9190614a54565b610f02565b005b34801561053257600080fd5b5061053b611221565b005b34801561054957600080fd5b50610564600480360381019061055f91906143d1565b611311565b005b34801561057257600080fd5b5061057b611325565b6040516105889190614569565b60405180910390f35b34801561059d57600080fd5b506105b860048036038101906105b39190614b2e565b61132e565b005b6105d460048036038101906105cf9190614b5b565b6113d8565b005b3480156105e257600080fd5b506105fd60048036038101906105f89190614b2e565b6113f7565b60405161060c93929190614c0c565b60405180910390f35b34801561062157600080fd5b5061062a6114b6565b6040516106379190614c4a565b60405180910390f35b34801561064c57600080fd5b506106556114e9565b604051610662919061486f565b60405180910390f35b34801561067757600080fd5b5061068061150f565b60405161068d9190614569565b60405180910390f35b3480156106a257600080fd5b506106bd60048036038101906106b89190614b2e565b611534565b6040516106ca91906147d6565b60405180910390f35b3480156106df57600080fd5b506106e861158b565b005b3480156106f657600080fd5b50610711600480360381019061070c9190614b2e565b61159f565b005b34801561071f57600080fd5b5061073a6004803603810190610735919061450e565b611894565b005b34801561074857600080fd5b50610763600480360381019061075e9190614b2e565b6118b4565b005b34801561077157600080fd5b5061077a6119ee565b005b34801561078857600080fd5b506107a3600480360381019061079e9190614c91565b611ade565b005b3480156107b157600080fd5b506107ba611e1a565b6040516107c791906147d6565b60405180910390f35b3480156107dc57600080fd5b506107e5611e20565b6040516107f2919061486f565b60405180910390f35b34801561080757600080fd5b50610822600480360381019061081d9190614d14565b611e58565b005b34801561083057600080fd5b50610839611f72565b604051610846919061448e565b60405180910390f35b34801561085b57600080fd5b50610876600480360381019061087191906147f1565b612013565b005b34801561088457600080fd5b5061089f600480360381019061089a919061450e565b612099565b6040516108ac9190614569565b60405180910390f35b3480156108c157600080fd5b506108ca6120bf565b6040516108d7919061448e565b60405180910390f35b3480156108ec57600080fd5b5061090760048036038101906109029190614b2e565b6120f8565b6040516109149190614d70565b60405180910390f35b34801561092957600080fd5b50610944600480360381019061093f91906147f1565b6121cc565b005b34801561095257600080fd5b5061096d600480360381019061096891906143d1565b612207565b005b34801561097b57600080fd5b5061099660048036038101906109919190614b2e565b6122f2565b005b3480156109a457600080fd5b506109bf60048036038101906109ba91906147f1565b6124d9565b005b3480156109cd57600080fd5b506109e860048036038101906109e39190614f1d565b6125cd565b005b3480156109f657600080fd5b50610a116004803603810190610a0c9190614f95565b612818565b604051610a1e91906147d6565b60405180910390f35b348015610a3357600080fd5b50610a3c6128ad565b604051610a4991906147d6565b60405180910390f35b348015610a5e57600080fd5b50610a796004803603810190610a74919061450e565b6128b3565b604051610a869190614998565b60405180910390f35b348015610a9b57600080fd5b50610ab66004803603810190610ab19190614d14565b61295f565b005b348015610ac457600080fd5b50610adf6004803603810190610ada91906146b9565b6129f2565b005b348015610aed57600080fd5b50610b086004803603810190610b039190614fd5565b612a48565b005b348015610b1657600080fd5b50610b316004803603810190610b2c9190614b2e565b612b6a565b005b60008054906101000a900473ffffffffffffffffffffffffffffffffffffffff1673ffffffffffffffffffffffffffffffffffffffff16610b72612bf0565b73ffffffffffffffffffffffffffffffffffffffff1614610bd157610b95612bf0565b6040517f8febe2a8000000000000000000000000000000000000000000000000000000008152600401610bc8919061486f565b60405180910390fd5b60006003549050816003819055507f417d3182143000256e46ef44191556d83fe30d40d534db8630575a8fa81bb53181600354604051610c12929190615088565b60405180910390a15050565b60606000610c2a612bf8565b9050806003018054610c3b906150e0565b80601f0160208091040260200160405190810160405280929190818152602001828054610c67906150e0565b8015610cb45780601f10610c8957610100808354040283529160200191610cb4565b820191906000526020600020905b815481529060010190602001808311610c9757829003601f168201915b505050505091505090565b600080610cca612bf0565b9050610cd7818585612c20565b600191505092915050565b6000806000610cf2878787612c32565b9250925092509450945094915050565b600080610d0d612bf8565b9050806002015491505090565b6000806000610d31610d2a612bf0565b8787612c32565b92509250925093509350939050565b60008054906101000a900473ffffffffffffffffffffffffffffffffffffffff1681565b6000610d6e612ee1565b610d79848484612f22565b600190509392505050565b610d8c612ee1565b610d9e610d97612bf0565b8484612f22565b7f257fd9551afa5a5606bad0a9c70e36ba893d3954f1b94d9dac7aa9f35e19eaaf610dc7612bf0565b848484604051610dda9493929190615111565b60405180910390a1505050565b60008054906101000a900473ffffffffffffffffffffffffffffffffffffffff1673ffffffffffffffffffffffffffffffffffffffff16610e26612bf0565b73ffffffffffffffffffffffffffffffffffffffff1614610e8557610e49612bf0565b6040517f8febe2a8000000000000000000000000000000000000000000000000000000008152600401610e7c919061486f565b60405180910390fd5b610e8f8484613004565b8373ffffffffffffffffffffffffffffffffffffffff167f876b7cb47aa150b3a5516188b19ed308752ad4d0ae9a702543353b78163f7589610ecf612bf0565b858585604051610ee2949392919061515d565b60405180910390a250505050565b60006001905090565b60006012905090565b6000610f0c613086565b905060008160000160089054906101000a900460ff1615905060008260000160009054906101000a900467ffffffffffffffff1690506000808267ffffffffffffffff16148015610f5a5750825b9050600060018367ffffffffffffffff16148015610f8f575060003073ffffffffffffffffffffffffffffffffffffffff163b145b905081158015610f9d575080155b15610fd4576040517ff92ee8a900000000000000000000000000000000000000000000000000000000815260040160405180910390fd5b60018560000160006101000a81548167ffffffffffffffff021916908367ffffffffffffffff16021790555083156110245760018560000160086101000a81548160ff0219169083151502179055505b61102e8a8a61309a565b6110366130b0565b61103f8c6130ba565b6110476130ce565b61104f6130d8565b8573ffffffffffffffffffffffffffffffffffffffff166301ffc9a77ffb4952d6000000000000000000000000000000000000000000000000000000006040518263ffffffff1660e01b81526004016110a891906151eb565b602060405180830381865afa1580156110c5573d6000803e3d6000fd5b505050506040513d601f19601f820116820180604052508101906110e99190615232565b611128576040517f08c379a000000000000000000000000000000000000000000000000000000000815260040161111f906152ab565b60405180910390fd5b8a6000806101000a81548173ffffffffffffffffffffffffffffffffffffffff021916908373ffffffffffffffffffffffffffffffffffffffff160217905550876002819055508660038190555085600160006101000a81548173ffffffffffffffffffffffffffffffffffffffff021916908373ffffffffffffffffffffffffffffffffffffffff16021790555083156112135760008560000160086101000a81548160ff0219169083151502179055507fc7f505b2f371ae2175ee4913f4499e1f2633a7b5936321eed1cdaeb6115181d2600160405161120a9190615324565b60405180910390a15b505050505050505050505050565b60008054906101000a900473ffffffffffffffffffffffffffffffffffffffff1673ffffffffffffffffffffffffffffffffffffffff16611260612bf0565b73ffffffffffffffffffffffffffffffffffffffff16141580156112be5750611287611e20565b73ffffffffffffffffffffffffffffffffffffffff166112a5612bf0565b73ffffffffffffffffffffffffffffffffffffffff1614155b15611307576112cb612bf0565b6040517f8febe2a80000000000000000000000000000000000000000000000000000000081526004016112fe919061486f565b60405180910390fd5b61130f6130e2565b565b61132261131c612bf0565b82613004565b50565b60006001905090565b60008054906101000a900473ffffffffffffffffffffffffffffffffffffffff1673ffffffffffffffffffffffffffffffffffffffff1661136d612bf0565b73ffffffffffffffffffffffffffffffffffffffff16146113cc57611390612bf0565b6040517f8febe2a80000000000000000000000000000000000000000000000000000000081526004016113c3919061486f565b60405180910390fd5b6113d581613154565b50565b6113e0613257565b6113e98261333d565b6113f38282613348565b5050565b60046020528060005260406000206000915090508060000160009054906101000a900460ff1690806001015490806002018054611433906150e0565b80601f016020809104026020016040519081016040528092919081815260200182805461145f906150e0565b80156114ac5780601f10611481576101008083540402835291602001916114ac565b820191906000526020600020905b81548152906001019060200180831161148f57829003601f168201915b5050505050905083565b60006114c0613467565b7f360894a13ba1a3210667c828492db98dca3e2076cc3735a920a3ca505d382bbc60001b905090565b600160009054906101000a900473ffffffffffffffffffffffffffffffffffffffff1681565b60008061151a6134ee565b90508060000160009054906101000a900460ff1691505090565b60008061153f612bf8565b90508060000160008473ffffffffffffffffffffffffffffffffffffffff1673ffffffffffffffffffffffffffffffffffffffff16815260200190815260200160002054915050919050565b611593613516565b61159d600061359d565b565b60008054906101000a900473ffffffffffffffffffffffffffffffffffffffff1673ffffffffffffffffffffffffffffffffffffffff166115de612bf0565b73ffffffffffffffffffffffffffffffffffffffff161415801561163c5750611605611e20565b73ffffffffffffffffffffffffffffffffffffffff16611623612bf0565b73ffffffffffffffffffffffffffffffffffffffff1614155b1561168557611649612bf0565b6040517f8febe2a800000000000000000000000000000000000000000000000000000000815260040161167c919061486f565b60405180910390fd5b600073ffffffffffffffffffffffffffffffffffffffff168173ffffffffffffffffffffffffffffffffffffffff16036116f4576040517f08c379a00000000000000000000000000000000000000000000000000000000081526004016116eb9061538b565b60405180910390fd5b8073ffffffffffffffffffffffffffffffffffffffff166301ffc9a77ffb4952d6000000000000000000000000000000000000000000000000000000006040518263ffffffff1660e01b815260040161174d91906151eb565b602060405180830381865afa15801561176a573d6000803e3d6000fd5b505050506040513d601f19601f8201168201806040525081019061178e9190615232565b6117cd576040517f08c379a00000000000000000000000000000000000000000000000000000000081526004016117c4906152ab565b60405180910390fd5b6000600160009054906101000a900473ffffffffffffffffffffffffffffffffffffffff16905081600160006101000a81548173ffffffffffffffffffffffffffffffffffffffff021916908373ffffffffffffffffffffffffffffffffffffffff1602179055507f3b239aa7a7d73741fde7e904b5938676da9929c4d0cbaaf8a1aac53c54aaa9bb81600160009054906101000a900473ffffffffffffffffffffffffffffffffffffffff166040516118889291906153ab565b60405180910390a15050565b6118a6826118a0612bf0565b83613674565b6118b08282613004565b5050565b6118bc613516565b600073ffffffffffffffffffffffffffffffffffffffff168173ffffffffffffffffffffffffffffffffffffffff160361192b576040517f08c379a00000000000000000000000000000000000000000000000000000000081526004016119229061538b565b60405180910390fd5b60008060009054906101000a900473ffffffffffffffffffffffffffffffffffffffff169050816000806101000a81548173ffffffffffffffffffffffffffffffffffffffff021916908373ffffffffffffffffffffffffffffffffffffffff1602179055507f7e3cd6ea3802d5b204ea8d05dc59304bbbf195d5782b2fbbb169c2960b10a1048160008054906101000a900473ffffffffffffffffffffffffffffffffffffffff166040516119e29291906153ab565b60405180910390a15050565b60008054906101000a900473ffffffffffffffffffffffffffffffffffffffff1673ffffffffffffffffffffffffffffffffffffffff16611a2d612bf0565b73ffffffffffffffffffffffffffffffffffffffff1614158015611a8b5750611a54611e20565b73ffffffffffffffffffffffffffffffffffffffff16611a72612bf0565b73ffffffffffffffffffffffffffffffffffffffff1614155b15611ad457611a98612bf0565b6040517f8febe2a8000000000000000000000000000000000000000000000000000000008152600401611acb919061486f565b60405180910390fd5b611adc613709565b565b60008054906101000a900473ffffffffffffffffffffffffffffffffffffffff1673ffffffffffffffffffffffffffffffffffffffff16611b1d612bf0565b73ffffffffffffffffffffffffffffffffffffffff1614611b7c57611b40612bf0565b6040517f8febe2a8000000000000000000000000000000000000000000000000000000008152600401611b73919061486f565b60405180910390fd5b600073ffffffffffffffffffffffffffffffffffffffff168473ffffffffffffffffffffffffffffffffffffffff1603611beb576040517f08c379a0000000000000000000000000000000000000000000000000000000008152600401611be29061538b565b60405180910390fd5b428211611c2d576040517f08c379a0000000000000000000000000000000000000000000000000000000008152600401611c2490615420565b60405180910390fd5b6000600460008673ffffffffffffffffffffffffffffffffffffffff1673ffffffffffffffffffffffffffffffffffffffff16815260200190815260200160002060000160009054906101000a900460ff1660ff161480611ce257508260ff16600460008673ffffffffffffffffffffffffffffffffffffffff1673ffffffffffffffffffffffffffffffffffffffff16815260200190815260200160002060000160009054906101000a900460ff1660ff16145b611d21576040517f08c379a0000000000000000000000000000000000000000000000000000000008152600401611d18906154b2565b60405180910390fd5b60405180606001604052808460ff16815260200183815260200182815250600460008673ffffffffffffffffffffffffffffffffffffffff1673ffffffffffffffffffffffffffffffffffffffff16815260200190815260200160002060008201518160000160006101000a81548160ff021916908360ff160217905550602082015181600101556040820151816002019081611dbe9190615674565b509050508373ffffffffffffffffffffffffffffffffffffffff167f391f5f322ed7a692dd35e9ec88c9a3f05bf3cd2f38a506fb8b3b2d77b3bcbad5848484604051611e0c93929190614c0c565b60405180910390a250505050565b60035481565b600080611e2b61377b565b90508060000160009054906101000a900473ffffffffffffffffffffffffffffffffffffffff1691505090565b60008054906101000a900473ffffffffffffffffffffffffffffffffffffffff1673ffffffffffffffffffffffffffffffffffffffff16611e97612bf0565b73ffffffffffffffffffffffffffffffffffffffff1614611ef657611eba612bf0565b6040517f8febe2a8000000000000000000000000000000000000000000000000000000008152600401611eed919061486f565b60405180910390fd5b611f0030836137a3565b3073ffffffffffffffffffffffffffffffffffffffff16611f1f612bf0565b73ffffffffffffffffffffffffffffffffffffffff167f0e9905d62635f049c2f4e11678ebf9dc3d1f8c4a653e290759b772e47ba00d008484604051611f66929190615746565b60405180910390a35050565b60606000611f7e612bf8565b9050806004018054611f8f906150e0565b80601f0160208091040260200160405190810160405280929190818152602001828054611fbb906150e0565b80156120085780601f10611fdd57610100808354040283529160200191612008565b820191906000526020600020905b815481529060010190602001808311611feb57829003601f168201915b505050505091505090565b61201b612ee1565b612026838383613825565b8273ffffffffffffffffffffffffffffffffffffffff16612045612bf0565b73ffffffffffffffffffffffffffffffffffffffff167fb7d0d6b60740753e9f16692a2f479472a1385aec2420fa43225b02f2ffa1afe7848460405161208c929190615746565b60405180910390a3505050565b60006120a3612ee1565b6120b56120ae612bf0565b8484612f22565b6001905092915050565b6040518060400160405280600581526020017f352e302e3000000000000000000000000000000000000000000000000000000081525081565b6060600460008373ffffffffffffffffffffffffffffffffffffffff1673ffffffffffffffffffffffffffffffffffffffff1681526020019081526020016000206002018054612147906150e0565b80601f0160208091040260200160405190810160405280929190818152602001828054612173906150e0565b80156121c05780601f10612195576101008083540402835291602001916121c0565b820191906000526020600020905b8154815290600101906020018083116121a357829003601f168201915b50505050509050919050565b6040517f08c379a00000000000000000000000000000000000000000000000000000000081526004016121fe906157c2565b60405180910390fd5b60008054906101000a900473ffffffffffffffffffffffffffffffffffffffff1673ffffffffffffffffffffffffffffffffffffffff16612246612bf0565b73ffffffffffffffffffffffffffffffffffffffff16146122a557612269612bf0565b6040517f8febe2a800000000000000000000000000000000000000000000000000000000815260040161229c919061486f565b60405180910390fd5b60006002549050816002819055507f68c24c5393143b1f049271be1cee88809ab0a871f0f81b7dfeb923232e9740b2816002546040516122e6929190615088565b60405180910390a15050565b60008054906101000a900473ffffffffffffffffffffffffffffffffffffffff1673ffffffffffffffffffffffffffffffffffffffff16612331612bf0565b73ffffffffffffffffffffffffffffffffffffffff161461239057612354612bf0565b6040517f8febe2a8000000000000000000000000000000000000000000000000000000008152600401612387919061486f565b60405180910390fd5b6000600460008373ffffffffffffffffffffffffffffffffffffffff1673ffffffffffffffffffffffffffffffffffffffff16815260200190815260200160002060000160009054906101000a900460ff1660ff1603612425576040517f08c379a000000000000000000000000000000000000000000000000000000000815260040161241c9061582e565b60405180910390fd5b600460008273ffffffffffffffffffffffffffffffffffffffff1673ffffffffffffffffffffffffffffffffffffffff168152602001908152602001600020600080820160006101000a81549060ff02191690556001820160009055600282016000612491919061432a565b50508073ffffffffffffffffffffffffffffffffffffffff167ff14dffbaeab131560f8fe224a0d2dcabfe6c39356672da98264ce472aaf9317c60405160405180910390a250565b60008054906101000a900473ffffffffffffffffffffffffffffffffffffffff1673ffffffffffffffffffffffffffffffffffffffff16612518612bf0565b73ffffffffffffffffffffffffffffffffffffffff16146125775761253b612bf0565b6040517f8febe2a800000000000000000000000000000000000000000000000000000000815260040161256e919061486f565b60405180910390fd5b6125823084846138fb565b61258b83613154565b7f257fd9551afa5a5606bad0a9c70e36ba893d3954f1b94d9dac7aa9f35e19eaaf308484846040516125c09493929190615111565b60405180910390a1505050565b60008054906101000a900473ffffffffffffffffffffffffffffffffffffffff1673ffffffffffffffffffffffffffffffffffffffff1661260c612bf0565b73ffffffffffffffffffffffffffffffffffffffff161461266b5761262f612bf0565b6040517f8febe2a8000000000000000000000000000000000000000000000000000000008152600401612662919061486f565b60405180910390fd5b80518251146126b557815181516040517f4c59bf280000000000000000000000000000000000000000000000000000000081526004016126ac929190615088565b60405180910390fd5b60005b82518110156127e657612700308483815181106126d8576126d761584e565b5b60200260200101518484815181106126f3576126f261584e565b5b60200260200101516138fb565b6127238382815181106127165761271561584e565b5b6020026020010151613154565b7f257fd9551afa5a5606bad0a9c70e36ba893d3954f1b94d9dac7aa9f35e19eaaf308483815181106127585761275761584e565b5b60200260200101518484815181106127735761277261584e565b5b602002602001015160405161278a939291906158a3565b60405180910390a1614e205a10156127d9577f04b5c955dd776952b089eace0e13a2ec76cf7b2571065f0571680f3976beb4c1816040516127cb91906147d6565b60405180910390a150612814565b80806001019150506126b8565b507fed606b1840f9cdb729ecc05be2f06ed71de5b75eb8f01332baddac3b271be4d760405160405180910390a15b5050565b600080612823612bf8565b90508060010160008573ffffffffffffffffffffffffffffffffffffffff1673ffffffffffffffffffffffffffffffffffffffff16815260200190815260200160002060008473ffffffffffffffffffffffffffffffffffffffff1673ffffffffffffffffffffffffffffffffffffffff1681526020019081526020016000205491505092915050565b60025481565b600081600460008573ffffffffffffffffffffffffffffffffffffffff1673ffffffffffffffffffffffffffffffffffffffff168152602001908152602001600020600101541015612906576000612957565b600460008473ffffffffffffffffffffffffffffffffffffffff1673ffffffffffffffffffffffffffffffffffffffff16815260200190815260200160002060000160009054906101000a900460ff165b905092915050565b612967612ee1565b612979612972612bf0565b8383613825565b612981612bf0565b73ffffffffffffffffffffffffffffffffffffffff1661299f612bf0565b73ffffffffffffffffffffffffffffffffffffffff167fb7d0d6b60740753e9f16692a2f479472a1385aec2420fa43225b02f2ffa1afe784846040516129e6929190615746565b60405180910390a35050565b6129fa612ee1565b612a05848484612f22565b7f257fd9551afa5a5606bad0a9c70e36ba893d3954f1b94d9dac7aa9f35e19eaaf84848484604051612a3a9493929190615111565b60405180910390a150505050565b60008054906101000a900473ffffffffffffffffffffffffffffffffffffffff1673ffffffffffffffffffffffffffffffffffffffff16612a87612bf0565b73ffffffffffffffffffffffffffffffffffffffff1614612ae657612aaa612bf0565b6040517f8febe2a8000000000000000000000000000000000000000000000000000000008152600401612add919061486f565b60405180910390fd5b612af18585856138fb565b8373ffffffffffffffffffffffffffffffffffffffff168573ffffffffffffffffffffffffffffffffffffffff167f6bf62b4b9c7b768275122bf70d429efc398a056d669b1efdf6c3976346246d7d612b48612bf0565b868686604051612b5b949392919061515d565b60405180910390a35050505050565b612b72613516565b600073ffffffffffffffffffffffffffffffffffffffff168173ffffffffffffffffffffffffffffffffffffffff1603612be45760006040517f1e4fbdf7000000000000000000000000000000000000000000000000000000008152600401612bdb919061486f565b60405180910390fd5b612bed8161359d565b50565b600033905090565b60007f52c63247e1f47db19d5ce0460030c497f067ca4cebf71ba98eeadabe20bace00905090565b612c2d83838360016139ef565b505050565b6000806000600254841015612c55576000605060f81b6000925092509250612ed8565b42600460008873ffffffffffffffffffffffffffffffffffffffff1673ffffffffffffffffffffffffffffffffffffffff16815260200190815260200160002060010154118015612cfb5750600160ff16600460008873ffffffffffffffffffffffffffffffffffffffff1673ffffffffffffffffffffffffffffffffffffffff16815260200190815260200160002060000160009054906101000a900460ff1660ff16145b15612dd25742600460008773ffffffffffffffffffffffffffffffffffffffff1673ffffffffffffffffffffffffffffffffffffffff16815260200190815260200160002060010154118015612da65750600260ff16600460008773ffffffffffffffffffffffffffffffffffffffff1673ffffffffffffffffffffffffffffffffffffffff16815260200190815260200160002060000160009054906101000a900460ff1660ff16145b15612dbe5760018060f81b6000925092509250612ed8565b6000605060f81b6000925092509250612ed8565b42600460008873ffffffffffffffffffffffffffffffffffffffff1673ffffffffffffffffffffffffffffffffffffffff16815260200190815260200160002060010154118015612e785750600260ff16600460008873ffffffffffffffffffffffffffffffffffffffff1673ffffffffffffffffffffffffffffffffffffffff16815260200190815260200160002060000160009054906101000a900460ff1660ff16145b8015612eb05750600073ffffffffffffffffffffffffffffffffffffffff168573ffffffffffffffffffffffffffffffffffffffff16145b15612ec85760018060f81b6000925092509250612ed8565b6000605060f81b60009250925092505b93509350939050565b612ee961150f565b15612f20576040517fd93c066500000000000000000000000000000000000000000000000000000000815260040160405180910390fd5b565b6000612f3f84848460405180602001604052806000815250610ce2565b5050905080612f83576040517f08c379a0000000000000000000000000000000000000000000000000000000008152600401612f7a90615939565b60405180910390fd5b612f8b612bf0565b73ffffffffffffffffffffffffffffffffffffffff168473ffffffffffffffffffffffffffffffffffffffff1603612fcd57612fc78383613bd5565b50612fda565b612fd8848484613bf8565b505b6000612fe585611534565b1115612ff557612ff484613154565b5b612ffe83613154565b50505050565b600073ffffffffffffffffffffffffffffffffffffffff168273ffffffffffffffffffffffffffffffffffffffff16036130765760006040517f96c6fd1e00000000000000000000000000000000000000000000000000000000815260040161306d919061486f565b60405180910390fd5b61308282600083613c27565b5050565b600080613091613e66565b90508091505090565b6130a2613e91565b6130ac8282613ed1565b5050565b6130b8613e91565b565b6130c2613e91565b6130cb81613f0e565b50565b6130d6613e91565b565b6130e0613e91565b565b6130ea613f94565b60006130f46134ee565b905060008160000160006101000a81548160ff0219169083151502179055507f5db9ee0a495bf2e6ff9c91a7834c1ba4fdd244a5e8aa4e537bd38aeae4b073aa61313c612bf0565b604051613149919061486f565b60405180910390a150565b600073ffffffffffffffffffffffffffffffffffffffff168173ffffffffffffffffffffffffffffffffffffffff16036131c3576040517f08c379a00000000000000000000000000000000000000000000000000000000081526004016131ba9061538b565b60405180910390fd5b600160009054906101000a900473ffffffffffffffffffffffffffffffffffffffff1673ffffffffffffffffffffffffffffffffffffffff1663fb4952d6826003546040518363ffffffff1660e01b8152600401613222929190615959565b600060405180830381600087803b15801561323c57600080fd5b505af1158015613250573d6000803e3d6000fd5b5050505050565b7f000000000000000000000000000000000000000000000000000000000000000073ffffffffffffffffffffffffffffffffffffffff163073ffffffffffffffffffffffffffffffffffffffff16148061330457507f000000000000000000000000000000000000000000000000000000000000000073ffffffffffffffffffffffffffffffffffffffff166132eb613fd4565b73ffffffffffffffffffffffffffffffffffffffff1614155b1561333b576040517fe07c8dba00000000000000000000000000000000000000000000000000000000815260040160405180910390fd5b565b613345613516565b50565b8173ffffffffffffffffffffffffffffffffffffffff166352d1902d6040518163ffffffff1660e01b8152600401602060405180830381865afa9250505080156133b057506040513d601f19601f820116820180604052508101906133ad91906159ae565b60015b6133f157816040517f4c9c8ce30000000000000000000000000000000000000000000000000000000081526004016133e8919061486f565b60405180910390fd5b7f360894a13ba1a3210667c828492db98dca3e2076cc3735a920a3ca505d382bbc60001b811461345857806040517faa1d49a400000000000000000000000000000000000000000000000000000000815260040161344f9190614c4a565b60405180910390fd5b613462838361402b565b505050565b7f000000000000000000000000000000000000000000000000000000000000000073ffffffffffffffffffffffffffffffffffffffff163073ffffffffffffffffffffffffffffffffffffffff16146134ec576040517fe07c8dba00000000000000000000000000000000000000000000000000000000815260040160405180910390fd5b565b60007fcd5ed15c6e187e77e9aee88184c21f4f2182ab5827cb3b7e07fbedcd63f03300905090565b61351e612bf0565b73ffffffffffffffffffffffffffffffffffffffff1661353c611e20565b73ffffffffffffffffffffffffffffffffffffffff161461359b5761355f612bf0565b6040517f118cdaa7000000000000000000000000000000000000000000000000000000008152600401613592919061486f565b60405180910390fd5b565b60006135a761377b565b905060008160000160009054906101000a900473ffffffffffffffffffffffffffffffffffffffff169050828260000160006101000a81548173ffffffffffffffffffffffffffffffffffffffff021916908373ffffffffffffffffffffffffffffffffffffffff1602179055508273ffffffffffffffffffffffffffffffffffffffff168173ffffffffffffffffffffffffffffffffffffffff167f8be0079c531659141344cd1fd0a4f28419497f9722a3daafe3b4186f6b6457e060405160405180910390a3505050565b60006136808484612818565b90507fffffffffffffffffffffffffffffffffffffffffffffffffffffffffffffffff81101561370357818110156136f3578281836040517ffb8f41b20000000000000000000000000000000000000000000000000000000081526004016136ea939291906159db565b60405180910390fd5b613702848484840360006139ef565b5b50505050565b613711612ee1565b600061371b6134ee565b905060018160000160006101000a81548160ff0219169083151502179055507f62e78cea01bee320cd4e420270b5ea74000d11b0c9f74754ebdbfc544b05a258613763612bf0565b604051613770919061486f565b60405180910390a150565b60007f9016d09d72d40fdae2fd8ceac6b6234c7706214fd39c1cd1e609a0528c199300905090565b600073ffffffffffffffffffffffffffffffffffffffff168273ffffffffffffffffffffffffffffffffffffffff16036138155760006040517fec442f0500000000000000000000000000000000000000000000000000000000815260040161380c919061486f565b60405180910390fd5b61382160008383613c27565b5050565b60006138438460008560405180602001604052806000815250610ce2565b5050905080613887576040517f08c379a000000000000000000000000000000000000000000000000000000000815260040161387e90615a5e565b60405180910390fd5b61388f612bf0565b73ffffffffffffffffffffffffffffffffffffffff168473ffffffffffffffffffffffffffffffffffffffff16036138cf576138ca83611311565b6138da565b6138d98484611894565b5b60006138e585611534565b11156138f5576138f484613154565b5b50505050565b600073ffffffffffffffffffffffffffffffffffffffff168373ffffffffffffffffffffffffffffffffffffffff160361396d5760006040517f96c6fd1e000000000000000000000000000000000000000000000000000000008152600401613964919061486f565b60405180910390fd5b600073ffffffffffffffffffffffffffffffffffffffff168273ffffffffffffffffffffffffffffffffffffffff16036139df5760006040517fec442f050000000000000000000000000000000000000000000000000000000081526004016139d6919061486f565b60405180910390fd5b6139ea838383613c27565b505050565b60006139f9612bf8565b9050600073ffffffffffffffffffffffffffffffffffffffff168573ffffffffffffffffffffffffffffffffffffffff1603613a6d5760006040517fe602df05000000000000000000000000000000000000000000000000000000008152600401613a64919061486f565b60405180910390fd5b600073ffffffffffffffffffffffffffffffffffffffff168473ffffffffffffffffffffffffffffffffffffffff1603613adf5760006040517f94280d62000000000000000000000000000000000000000000000000000000008152600401613ad6919061486f565b60405180910390fd5b828160010160008773ffffffffffffffffffffffffffffffffffffffff1673ffffffffffffffffffffffffffffffffffffffff16815260200190815260200160002060008673ffffffffffffffffffffffffffffffffffffffff1673ffffffffffffffffffffffffffffffffffffffff168152602001908152602001600020819055508115613bce578373ffffffffffffffffffffffffffffffffffffffff168573ffffffffffffffffffffffffffffffffffffffff167f8c5be1e5ebec7d5bd14f71427d1e84f3dd0314c0f7b2291e5b200ac8c7c3b92585604051613bc591906147d6565b60405180910390a35b5050505050565b600080613be0612bf0565b9050613bed8185856138fb565b600191505092915050565b600080613c03612bf0565b9050613c10858285613674565b613c1b8585856138fb565b60019150509392505050565b6000613c31612bf8565b9050600073ffffffffffffffffffffffffffffffffffffffff168473ffffffffffffffffffffffffffffffffffffffff1603613c875781816002016000828254613c7b9190615aad565b92505081905550613d60565b60008160000160008673ffffffffffffffffffffffffffffffffffffffff1673ffffffffffffffffffffffffffffffffffffffff16815260200190815260200160002054905082811015613d16578481846040517fe450d38c000000000000000000000000000000000000000000000000000000008152600401613d0d939291906159db565b60405180910390fd5b8281038260000160008773ffffffffffffffffffffffffffffffffffffffff1673ffffffffffffffffffffffffffffffffffffffff16815260200190815260200160002081905550505b600073ffffffffffffffffffffffffffffffffffffffff168373ffffffffffffffffffffffffffffffffffffffff1603613dab57818160020160008282540392505081905550613dfb565b818160000160008573ffffffffffffffffffffffffffffffffffffffff1673ffffffffffffffffffffffffffffffffffffffff168152602001908152602001600020600082825401925050819055505b8273ffffffffffffffffffffffffffffffffffffffff168473ffffffffffffffffffffffffffffffffffffffff167fddf252ad1be2c89b69c2b068fc378daa952ba7f163c4a11628f55a4df523b3ef84604051613e5891906147d6565b60405180910390a350505050565b60007ff0c57e16840df040f15088dc2f81fe391c3923bec73e23a9662efc9c229c6a0060001b905090565b613e9961409e565b613ecf576040517fd7e6bcf800000000000000000000000000000000000000000000000000000000815260040160405180910390fd5b565b613ed9613e91565b6000613ee3612bf8565b905082816003019081613ef69190615b3c565b5081816004019081613f089190615b3c565b50505050565b613f16613e91565b600073ffffffffffffffffffffffffffffffffffffffff168173ffffffffffffffffffffffffffffffffffffffff1603613f885760006040517f1e4fbdf7000000000000000000000000000000000000000000000000000000008152600401613f7f919061486f565b60405180910390fd5b613f918161359d565b50565b613f9c61150f565b613fd2576040517f8dfc202b00000000000000000000000000000000000000000000000000000000815260040160405180910390fd5b565b60006140027f360894a13ba1a3210667c828492db98dca3e2076cc3735a920a3ca505d382bbc60001b6140be565b60000160009054906101000a900473ffffffffffffffffffffffffffffffffffffffff16905090565b614034826140c8565b8173ffffffffffffffffffffffffffffffffffffffff167fbc7cd75a20ee27fd9adebab32041f755214dbc6bffa90cc0225b39da2e5c2d3b60405160405180910390a26000815111156140915761408b8282614195565b5061409a565b614099614219565b5b5050565b60006140a8613086565b60000160089054906101000a900460ff16905090565b6000819050919050565b60008173ffffffffffffffffffffffffffffffffffffffff163b0361412457806040517f4c9c8ce300000000000000000000000000000000000000000000000000000000815260040161411b919061486f565b60405180910390fd5b806141517f360894a13ba1a3210667c828492db98dca3e2076cc3735a920a3ca505d382bbc60001b6140be565b60000160006101000a81548173ffffffffffffffffffffffffffffffffffffffff021916908373ffffffffffffffffffffffffffffffffffffffff16021790555050565b60606000808473ffffffffffffffffffffffffffffffffffffffff16846040516141bf9190615c4a565b600060405180830381855af49150503d80600081146141fa576040519150601f19603f3d011682016040523d82523d6000602084013e6141ff565b606091505b509150915061420f858383614256565b9250505092915050565b6000341115614254576040517fb398979f00000000000000000000000000000000000000000000000000000000815260040160405180910390fd5b565b60608261426b57614266826142e5565b6142dd565b60008251148015614293575060008473ffffffffffffffffffffffffffffffffffffffff163b145b156142d557836040517f9996b3150000000000000000000000000000000000000000000000000000000081526004016142cc919061486f565b60405180910390fd5b8190506142de565b5b9392505050565b6000815111156142f85780518082602001fd5b6040517fd6bda27500000000000000000000000000000000000000000000000000000000815260040160405180910390fd5b508054614336906150e0565b6000825580601f106143485750614367565b601f016020900490600052602060002090810190614366919061436a565b5b50565b5b8082111561438357600081600090555060010161436b565b5090565b6000604051905090565b600080fd5b600080fd5b6000819050919050565b6143ae8161439b565b81146143b957600080fd5b50565b6000813590506143cb816143a5565b92915050565b6000602082840312156143e7576143e6614391565b5b60006143f5848285016143bc565b91505092915050565b600081519050919050565b600082825260208201905092915050565b60005b8381101561443857808201518184015260208101905061441d565b60008484015250505050565b6000601f19601f8301169050919050565b6000614460826143fe565b61446a8185614409565b935061447a81856020860161441a565b61448381614444565b840191505092915050565b600060208201905081810360008301526144a88184614455565b905092915050565b600073ffffffffffffffffffffffffffffffffffffffff82169050919050565b60006144db826144b0565b9050919050565b6144eb816144d0565b81146144f657600080fd5b50565b600081359050614508816144e2565b92915050565b6000806040838503121561452557614524614391565b5b6000614533858286016144f9565b9250506020614544858286016143bc565b9150509250929050565b60008115159050919050565b6145638161454e565b82525050565b600060208201905061457e600083018461455a565b92915050565b600080fd5b600080fd5b7f4e487b7100000000000000000000000000000000000000000000000000000000600052604160045260246000fd5b6145c682614444565b810181811067ffffffffffffffff821117156145e5576145e461458e565b5b80604052505050565b60006145f8614387565b905061460482826145bd565b919050565b600067ffffffffffffffff8211156146245761462361458e565b5b61462d82614444565b9050602081019050919050565b82818337600083830152505050565b600061465c61465784614609565b6145ee565b90508281526020810184848401111561467857614677614589565b5b61468384828561463a565b509392505050565b600082601f8301126146a05761469f614584565b5b81356146b0848260208601614649565b91505092915050565b600080600080608085870312156146d3576146d2614391565b5b60006146e1878288016144f9565b94505060206146f2878288016144f9565b9350506040614703878288016143bc565b925050606085013567ffffffffffffffff81111561472457614723614396565b5b6147308782880161468b565b91505092959194509250565b60007fff0000000000000000000000000000000000000000000000000000000000000082169050919050565b6147718161473c565b82525050565b6000819050919050565b61478a81614777565b82525050565b60006060820190506147a5600083018661455a565b6147b26020830185614768565b6147bf6040830184614781565b949350505050565b6147d08161439b565b82525050565b60006020820190506147eb60008301846147c7565b92915050565b60008060006060848603121561480a57614809614391565b5b6000614818868287016144f9565b9350506020614829868287016143bc565b925050604084013567ffffffffffffffff81111561484a57614849614396565b5b6148568682870161468b565b9150509250925092565b614869816144d0565b82525050565b60006020820190506148846000830184614860565b92915050565b6000806000606084860312156148a3576148a2614391565b5b60006148b1868287016144f9565b93505060206148c2868287016144f9565b92505060406148d3868287016143bc565b9150509250925092565b600080600080608085870312156148f7576148f6614391565b5b6000614905878288016144f9565b9450506020614916878288016143bc565b935050604085013567ffffffffffffffff81111561493757614936614396565b5b6149438782880161468b565b925050606085013567ffffffffffffffff81111561496457614963614396565b5b6149708782880161468b565b91505092959194509250565b600060ff82169050919050565b6149928161497c565b82525050565b60006020820190506149ad6000830184614989565b92915050565b600067ffffffffffffffff8211156149ce576149cd61458e565b5b6149d782614444565b9050602081019050919050565b60006149f76149f2846149b3565b6145ee565b905082815260208101848484011115614a1357614a12614589565b5b614a1e84828561463a565b509392505050565b600082601f830112614a3b57614a3a614584565b5b8135614a4b8482602086016149e4565b91505092915050565b600080600080600080600060e0888a031215614a7357614a72614391565b5b6000614a818a828b016144f9565b9750506020614a928a828b016144f9565b965050604088013567ffffffffffffffff811115614ab357614ab2614396565b5b614abf8a828b01614a26565b955050606088013567ffffffffffffffff811115614ae057614adf614396565b5b614aec8a828b01614a26565b9450506080614afd8a828b016143bc565b93505060a0614b0e8a828b016143bc565b92505060c0614b1f8a828b016144f9565b91505092959891949750929550565b600060208284031215614b4457614b43614391565b5b6000614b52848285016144f9565b91505092915050565b60008060408385031215614b7257614b71614391565b5b6000614b80858286016144f9565b925050602083013567ffffffffffffffff811115614ba157614ba0614396565b5b614bad8582860161468b565b9150509250929050565b600081519050919050565b600082825260208201905092915050565b6000614bde82614bb7565b614be88185614bc2565b9350614bf881856020860161441a565b614c0181614444565b840191505092915050565b6000606082019050614c216000830186614989565b614c2e60208301856147c7565b8181036040830152614c408184614bd3565b9050949350505050565b6000602082019050614c5f6000830184614781565b92915050565b614c6e8161497c565b8114614c7957600080fd5b50565b600081359050614c8b81614c65565b92915050565b60008060008060808587031215614cab57614caa614391565b5b6000614cb9878288016144f9565b9450506020614cca87828801614c7c565b9350506040614cdb878288016143bc565b925050606085013567ffffffffffffffff811115614cfc57614cfb614396565b5b614d088782880161468b565b91505092959194509250565b60008060408385031215614d2b57614d2a614391565b5b6000614d39858286016143bc565b925050602083013567ffffffffffffffff811115614d5a57614d59614396565b5b614d668582860161468b565b9150509250929050565b60006020820190508181036000830152614d8a8184614bd3565b905092915050565b600067ffffffffffffffff821115614dad57614dac61458e565b5b602082029050602081019050919050565b600080fd5b6000614dd6614dd184614d92565b6145ee565b90508083825260208201905060208402830185811115614df957614df8614dbe565b5b835b81811015614e225780614e0e88826144f9565b845260208401935050602081019050614dfb565b5050509392505050565b600082601f830112614e4157614e40614584565b5b8135614e51848260208601614dc3565b91505092915050565b600067ffffffffffffffff821115614e7557614e7461458e565b5b602082029050602081019050919050565b6000614e99614e9484614e5a565b6145ee565b90508083825260208201905060208402830185811115614ebc57614ebb614dbe565b5b835b81811015614ee55780614ed188826143bc565b845260208401935050602081019050614ebe565b5050509392505050565b600082601f830112614f0457614f03614584565b5b8135614f14848260208601614e86565b91505092915050565b60008060408385031215614f3457614f33614391565b5b600083013567ffffffffffffffff811115614f5257614f51614396565b5b614f5e85828601614e2c565b925050602083013567ffffffffffffffff811115614f7f57614f7e614396565b5b614f8b85828601614eef565b9150509250929050565b60008060408385031215614fac57614fab614391565b5b6000614fba858286016144f9565b9250506020614fcb858286016144f9565b9150509250929050565b600080600080600060a08688031215614ff157614ff0614391565b5b6000614fff888289016144f9565b9550506020615010888289016144f9565b9450506040615021888289016143bc565b935050606086013567ffffffffffffffff81111561504257615041614396565b5b61504e8882890161468b565b925050608086013567ffffffffffffffff81111561506f5761506e614396565b5b61507b8882890161468b565b9150509295509295909350565b600060408201905061509d60008301856147c7565b6150aa60208301846147c7565b9392505050565b7f4e487b7100000000000000000000000000000000000000000000000000000000600052602260045260246000fd5b600060028204905060018216806150f857607f821691505b60208210810361510b5761510a6150b1565b5b50919050565b60006080820190506151266000830187614860565b6151336020830186614860565b61514060408301856147c7565b81810360608301526151528184614bd3565b905095945050505050565b60006080820190506151726000830187614860565b61517f60208301866147c7565b81810360408301526151918185614bd3565b905081810360608301526151a58184614bd3565b905095945050505050565b60007fffffffff0000000000000000000000000000000000000000000000000000000082169050919050565b6151e5816151b0565b82525050565b600060208201905061520060008301846151dc565b92915050565b61520f8161454e565b811461521a57600080fd5b50565b60008151905061522c81615206565b92915050565b60006020828403121561524857615247614391565b5b60006152568482850161521d565b91505092915050565b7f496e76616c696420636f6d70656e736174696f6e20636f6e7472616374000000600082015250565b6000615295601d83614409565b91506152a08261525f565b602082019050919050565b600060208201905081810360008301526152c481615288565b9050919050565b6000819050919050565b600067ffffffffffffffff82169050919050565b6000819050919050565b600061530e615309615304846152cb565b6152e9565b6152d5565b9050919050565b61531e816152f3565b82525050565b60006020820190506153396000830184615315565b92915050565b7f496e76616c696420616464726573730000000000000000000000000000000000600082015250565b6000615375600f83614409565b91506153808261533f565b602082019050919050565b600060208201905081810360008301526153a481615368565b9050919050565b60006040820190506153c06000830185614860565b6153cd6020830184614860565b9392505050565b7f45787069726174696f6e206d75737420626520696e2074686520667574757265600082015250565b600061540a602083614409565b9150615415826153d4565b602082019050919050565b60006020820190508181036000830152615439816153fd565b9050919050565b7f506172747920616c72656164792072656769737465726564207769746820646960008201527f66666572656e74207065726d697373696f6e0000000000000000000000000000602082015250565b600061549c603283614409565b91506154a782615440565b604082019050919050565b600060208201905081810360008301526154cb8161548f565b9050919050565b60008190508160005260206000209050919050565b60006020601f8301049050919050565b600082821b905092915050565b6000600883026155347fffffffffffffffffffffffffffffffffffffffffffffffffffffffffffffffff826154f7565b61553e86836154f7565b95508019841693508086168417925050509392505050565b600061557161556c6155678461439b565b6152e9565b61439b565b9050919050565b6000819050919050565b61558b83615556565b61559f61559782615578565b848454615504565b825550505050565b600090565b6155b46155a7565b6155bf818484615582565b505050565b5b818110156155e3576155d86000826155ac565b6001810190506155c5565b5050565b601f821115615628576155f9816154d2565b615602846154e7565b81016020851015615611578190505b61562561561d856154e7565b8301826155c4565b50505b505050565b600082821c905092915050565b600061564b6000198460080261562d565b1980831691505092915050565b6000615664838361563a565b9150826002028217905092915050565b61567d82614bb7565b67ffffffffffffffff8111156156965761569561458e565b5b6156a082546150e0565b6156ab8282856155e7565b600060209050601f8311600181146156de57600084156156cc578287015190505b6156d68582615658565b86555061573e565b601f1984166156ec866154d2565b60005b82811015615714578489015182556001820191506020850194506020810190506156ef565b86831015615731578489015161572d601f89168261563a565b8355505b6001600288020188555050505b505050505050565b600060408201905061575b60008301856147c7565b818103602083015261576d8184614bd3565b90509392505050565b7f4e6f7420696d706c656d656e7465640000000000000000000000000000000000600082015250565b60006157ac600f83614409565b91506157b782615776565b602082019050919050565b600060208201905081810360008301526157db8161579f565b9050919050565b7f5061727479206e6f742072656769737465726564000000000000000000000000600082015250565b6000615818601483614409565b9150615823826157e2565b602082019050919050565b600060208201905081810360008301526158478161580b565b9050919050565b7f4e487b7100000000000000000000000000000000000000000000000000000000600052603260045260246000fd5b50565b600061588d600083614bc2565b91506158988261587d565b600082019050919050565b60006080820190506158b86000830186614860565b6158c56020830185614860565b6158d260408301846147c7565b81810360608301526158e381615880565b9050949350505050565b7f434845434b3a5472616e73666572206e6f7420616c6c6f776564000000000000600082015250565b6000615923601a83614409565b915061592e826158ed565b602082019050919050565b6000602082019050818103600083015261595281615916565b9050919050565b600060408201905061596e6000830185614860565b61597b60208301846147c7565b9392505050565b61598b81614777565b811461599657600080fd5b50565b6000815190506159a881615982565b92915050565b6000602082840312156159c4576159c3614391565b5b60006159d284828501615999565b91505092915050565b60006060820190506159f06000830186614860565b6159fd60208301856147c7565b615a0a60408301846147c7565b949350505050565b7f434845434b3a4275726e206e6f7420616c6c6f77656400000000000000000000600082015250565b6000615a48601683614409565b9150615a5382615a12565b602082019050919050565b60006020820190508181036000830152615a7781615a3b565b9050919050565b7f4e487b7100000000000000000000000000000000000000000000000000000000600052601160045260246000fd5b6000615ab88261439b565b9150615ac38361439b565b9250828201905080821115615adb57615ada615a7e565b5b92915050565b60008190508160005260206000209050919050565b601f821115615b3757615b0881615ae1565b615b11846154e7565b81016020851015615b20578190505b615b34615b2c856154e7565b8301826155c4565b50505b505050565b615b45826143fe565b67ffffffffffffffff811115615b5e57615b5d61458e565b5b615b6882546150e0565b615b73828285615af6565b600060209050601f831160018114615ba65760008415615b94578287015190505b615b9e8582615658565b865550615c06565b601f198416615bb486615ae1565b60005b82811015615bdc57848901518255600182019150602085019450602081019050615bb7565b86831015615bf95784890151615bf5601f89168261563a565b8355505b6001600288020188555050505b505050505050565b600081905092915050565b6000615c2482614bb7565b615c2e8185615c0e565b9350615c3e81856020860161441a565b80840191505092915050565b6000615c568284615c19565b91508190509291505056fea2646970667358221220c62c8821a652325c70e0ae46bb37617d94c3143d2b9e0f2e2d39e527e927829564736f6c634300081c0033",
  "linkReferences": {},
  "deployedLinkReferences": {}
}